:100000000C942A000C9434000C9434000C943400AA
:100010000C9434000C9434000C9434000C94340090
:100020000C9434000C9434000C9434000C94340080
:100030000C9434000C9434000C9434000C94340070
:100040000C9434000C9434000C9434000C94340060
:100050000C94340011241FBECFE5D8E0DEBFCDBF25
:100060000E9436000C94E6000C9400001ABA14BAF0
:100070008FEF85BB81BB83EA8FBD8AE18EBD8FE3A5
:100080009CE99BBD8ABD989902C0C0E0D0E09999D7
:1000900002C0C1E0D0E09A9902C0C2E0D0E09B99D2
:1000A00002C0C3E0D0E09C9902C0C4E0D0E09D99BA
:1000B00002C0C5E0D0E09E9902C0C6E0D0E09F99A2
:1000C00002C0C7E0D0E0209721F48FEC97E099BD03
:1000D00088BDC130D10521F48DE199E099BD88BD7D
:1000E000C230D10521F48AE69AE099BD88BDC330BB
:1000F000D10521F487EB9BE099BD88BDC430D105C3
:1001000021F485E09DE099BD88BDC530D10521F47D
:1001100082E59EE099BD88BDC630D10521F48FE906
:100120009FE099BD88BDC730D10509F0ACCF80E410
:1001300087B987EC86B93699FECF24B135B1A0EAEC
:10014000BFE00E94D7002FEF33E040E050E00E9474
:10015000B50039BD28BD2FEF80E792E021508040E7
:100160009040E1F700C000008ECFA1E21A2EAA1B3A
:10017000BB1BFD010DC0AA1FBB1FEE1FFF1FA21757
:10018000B307E407F50720F0A21BB30BE40BF50B54
:10019000661F771F881F991F1A9469F760957095DD
:1001A000809590959B01AC01BD01CF010895A29F60
:1001B000B001B39FC001A39F700D811D1124911D3B
:1001C000B29F700D811D1124911D0895F894FFCFE9
:00000001FF
